{
  "_format": "hh-sol-artifact-1",
  "contractName": "TaxCoinLock",
  "sourceName": "contracts/flattened_TaxCoinLock.sol",
  "abi": [
    {
      "inputs": [
        {
          "internalType": "string",
          "name": "name",
          "type": "string"
        },
        {
          "internalType": "string",
          "name": "symbol",
          "type": "string"
        },
        {
          "internalType": "uint256",
          "name": "_initialSupply",
          "type": "uint256"
        },
        {
          "internalType": "uint256",
          "name": "_taxPercentage",
          "type": "uint256"
        }
      ],
      "stateMutability": "nonpayable",
      "type": "constructor"
    },
    {
      "inputs": [
        {
          "internalType": "address",
          "name": "spender",
          "type": "address"
        },
        {
          "internalType": "uint256",
          "name": "allowance",
          "type": "uint256"
        },
        {
          "internalType": "uint256",
          "name": "needed",
          "type": "uint256"
        }
      ],
      "name": "ERC20InsufficientAllowance",
      "type": "error"
    },
    {
      "inputs": [
        {
          "internalType": "address",
          "name": "sender",
          "type": "address"
        },
        {
          "internalType": "uint256",
          "name": "balance",
          "type": "uint256"
        },
        {
          "internalType": "uint256",
          "name": "needed",
          "type": "uint256"
        }
      ],
      "name": "ERC20InsufficientBalance",
      "type": "error"
    },
    {
      "inputs": [
        {
          "internalType": "address",
          "name": "approver",
          "type": "address"
        }
      ],
      "name": "ERC20InvalidApprover",
      "type": "error"
    },
    {
      "inputs": [
        {
          "internalType": "address",
          "name": "receiver",
          "type": "address"
        }
      ],
      "name": "ERC20InvalidReceiver",
      "type": "error"
    },
    {
      "inputs": [
        {
          "internalType": "address",
          "name": "sender",
          "type": "address"
        }
      ],
      "name": "ERC20InvalidSender",
      "type": "error"
    },
    {
      "inputs": [
        {
          "internalType": "address",
          "name": "spender",
          "type": "address"
        }
      ],
      "name": "ERC20InvalidSpender",
      "type": "error"
    },
    {
      "inputs": [
        {
          "internalType": "address",
          "name": "owner",
          "type": "address"
        }
      ],
      "name": "OwnableInvalidOwner",
      "type": "error"
    },
    {
      "inputs": [
        {
          "internalType": "address",
          "name": "account",
          "type": "address"
        }
      ],
      "name": "OwnableUnauthorizedAccount",
      "type": "error"
    },
    {
      "anonymous": false,
      "inputs": [
        {
          "indexed": true,
          "internalType": "address",
          "name": "owner",
          "type": "address"
        },
        {
          "indexed": true,
          "internalType": "address",
          "name": "spender",
          "type": "address"
        },
        {
          "indexed": false,
          "internalType": "uint256",
          "name": "value",
          "type": "uint256"
        }
      ],
      "name": "Approval",
      "type": "event"
    },
    {
      "anonymous": false,
      "inputs": [
        {
          "indexed": false,
          "internalType": "uint256",
          "name": "proposalId",
          "type": "uint256"
        },
        {
          "indexed": false,
          "internalType": "string",
          "name": "title",
          "type": "string"
        },
        {
          "indexed": false,
          "internalType": "address",
          "name": "proposedAddress",
          "type": "address"
        }
      ],
      "name": "NewProposal",
      "type": "event"
    },
    {
      "anonymous": false,
      "inputs": [
        {
          "indexed": true,
          "internalType": "address",
          "name": "previousOwner",
          "type": "address"
        },
        {
          "indexed": true,
          "internalType": "address",
          "name": "newOwner",
          "type": "address"
        }
      ],
      "name": "OwnershipTransferred",
      "type": "event"
    },
    {
      "anonymous": false,
      "inputs": [
        {
          "indexed": false,
          "internalType": "uint256",
          "name": "proposalId",
          "type": "uint256"
        },
        {
          "indexed": false,
          "internalType": "address",
          "name": "to",
          "type": "address"
        },
        {
          "indexed": false,
          "internalType": "uint256",
          "name": "amount",
          "type": "uint256"
        }
      ],
      "name": "ProposalExecuted",
      "type": "event"
    },
    {
      "anonymous": false,
      "inputs": [
        {
          "indexed": true,
          "internalType": "address",
          "name": "from",
          "type": "address"
        },
        {
          "indexed": true,
          "internalType": "address",
          "name": "to",
          "type": "address"
        },
        {
          "indexed": false,
          "internalType": "uint256",
          "name": "value",
          "type": "uint256"
        }
      ],
      "name": "Transfer",
      "type": "event"
    },
    {
      "anonymous": false,
      "inputs": [
        {
          "indexed": false,
          "internalType": "address",
          "name": "from",
          "type": "address"
        },
        {
          "indexed": false,
          "internalType": "address",
          "name": "to",
          "type": "address"
        },
        {
          "indexed": false,
          "internalType": "uint256",
          "name": "amount",
          "type": "uint256"
        }
      ],
      "name": "TransferTax",
      "type": "event"
    },
    {
      "anonymous": false,
      "inputs": [
        {
          "indexed": false,
          "internalType": "address",
          "name": "voter",
          "type": "address"
        },
        {
          "indexed": false,
          "internalType": "uint256",
          "name": "proposalId",
          "type": "uint256"
        }
      ],
      "name": "VoteCast",
      "type": "event"
    },
    {
      "inputs": [
        {
          "internalType": "address",
          "name": "owner",
          "type": "address"
        },
        {
          "internalType": "address",
          "name": "spender",
          "type": "address"
        }
      ],
      "name": "allowance",
      "outputs": [
        {
          "internalType": "uint256",
          "name": "",
          "type": "uint256"
        }
      ],
      "stateMutability": "view",
      "type": "function"
    },
    {
      "inputs": [
        {
          "internalType": "address",
          "name": "spender",
          "type": "address"
        },
        {
          "internalType": "uint256",
          "name": "value",
          "type": "uint256"
        }
      ],
      "name": "approve",
      "outputs": [
        {
          "internalType": "bool",
          "name": "",
          "type": "bool"
        }
      ],
      "stateMutability": "nonpayable",
      "type": "function"
    },
    {
      "inputs": [
        {
          "internalType": "address",
          "name": "account",
          "type": "address"
        }
      ],
      "name": "balanceOf",
      "outputs": [
        {
          "internalType": "uint256",
          "name": "",
          "type": "uint256"
        }
      ],
      "stateMutability": "view",
      "type": "function"
    },
    {
      "inputs": [
        {
          "internalType": "string",
          "name": "_title",
          "type": "string"
        },
        {
          "internalType": "string",
          "name": "_description",
          "type": "string"
        },
        {
          "internalType": "address",
          "name": "_proposedAddress",
          "type": "address"
        },
        {
          "internalType": "uint256",
          "name": "_startDate",
          "type": "uint256"
        },
        {
          "internalType": "uint256",
          "name": "_endDate",
          "type": "uint256"
        },
        {
          "internalType": "uint256",
          "name": "_sendCoinAmount",
          "type": "uint256"
        }
      ],
      "name": "createProposal",
      "outputs": [],
      "stateMutability": "nonpayable",
      "type": "function"
    },
    {
      "inputs": [],
      "name": "decimals",
      "outputs": [
        {
          "internalType": "uint8",
          "name": "",
          "type": "uint8"
        }
      ],
      "stateMutability": "view",
      "type": "function"
    },
    {
      "inputs": [
        {
          "internalType": "uint256",
          "name": "proposalId",
          "type": "uint256"
        }
      ],
      "name": "executeProposal",
      "outputs": [],
      "stateMutability": "nonpayable",
      "type": "function"
    },
    {
      "inputs": [],
      "name": "lockedTaxes",
      "outputs": [
        {
          "internalType": "uint256",
          "name": "",
          "type": "uint256"
        }
      ],
      "stateMutability": "view",
      "type": "function"
    },
    {
      "inputs": [],
      "name": "name",
      "outputs": [
        {
          "internalType": "string",
          "name": "",
          "type": "string"
        }
      ],
      "stateMutability": "view",
      "type": "function"
    },
    {
      "inputs": [],
      "name": "owner",
      "outputs": [
        {
          "internalType": "address",
          "name": "",
          "type": "address"
        }
      ],
      "stateMutability": "view",
      "type": "function"
    },
    {
      "inputs": [
        {
          "internalType": "uint256",
          "name": "",
          "type": "uint256"
        }
      ],
      "name": "proposals",
      "outputs": [
        {
          "internalType": "string",
          "name": "title",
          "type": "string"
        },
        {
          "internalType": "string",
          "name": "description",
          "type": "string"
        },
        {
          "internalType": "address",
          "name": "proposedAddress",
          "type": "address"
        },
        {
          "internalType": "uint256",
          "name": "startDate",
          "type": "uint256"
        },
        {
          "internalType": "uint256",
          "name": "endDate",
          "type": "uint256"
        },
        {
          "internalType": "uint256",
          "name": "totalVotes",
          "type": "uint256"
        },
        {
          "internalType": "uint256",
          "name": "sendCoinAmount",
          "type": "uint256"
        },
        {
          "internalType": "bool",
          "name": "executed",
          "type": "bool"
        }
      ],
      "stateMutability": "view",
      "type": "function"
    },
    {
      "inputs": [],
      "name": "renounceOwnership",
      "outputs": [],
      "stateMutability": "nonpayable",
      "type": "function"
    },
    {
      "inputs": [],
      "name": "symbol",
      "outputs": [
        {
          "internalType": "string",
          "name": "",
          "type": "string"
        }
      ],
      "stateMutability": "view",
      "type": "function"
    },
    {
      "inputs": [],
      "name": "taxPercentage",
      "outputs": [
        {
          "internalType": "uint256",
          "name": "",
          "type": "uint256"
        }
      ],
      "stateMutability": "view",
      "type": "function"
    },
    {
      "inputs": [],
      "name": "totalSupply",
      "outputs": [
        {
          "internalType": "uint256",
          "name": "",
          "type": "uint256"
        }
      ],
      "stateMutability": "view",
      "type": "function"
    },
    {
      "inputs": [
        {
          "internalType": "address",
          "name": "recipient",
          "type": "address"
        },
        {
          "internalType": "uint256",
          "name": "amount",
          "type": "uint256"
        }
      ],
      "name": "transfer",
      "outputs": [
        {
          "internalType": "bool",
          "name": "",
          "type": "bool"
        }
      ],
      "stateMutability": "nonpayable",
      "type": "function"
    },
    {
      "inputs": [
        {
          "internalType": "address",
          "name": "from",
          "type": "address"
        },
        {
          "internalType": "address",
          "name": "to",
          "type": "address"
        },
        {
          "internalType": "uint256",
          "name": "value",
          "type": "uint256"
        }
      ],
      "name": "transferFrom",
      "outputs": [
        {
          "internalType": "bool",
          "name": "",
          "type": "bool"
        }
      ],
      "stateMutability": "nonpayable",
      "type": "function"
    },
    {
      "inputs": [
        {
          "internalType": "address",
          "name": "newOwner",
          "type": "address"
        }
      ],
      "name": "transferOwnership",
      "outputs": [],
      "stateMutability": "nonpayable",
      "type": "function"
    },
    {
      "inputs": [
        {
          "internalType": "uint256",
          "name": "proposalId",
          "type": "uint256"
        }
      ],
      "name": "vote",
      "outputs": [],
      "stateMutability": "nonpayable",
      "type": "function"
    }
  ],
  "bytecode": "0x60806040523480156200001157600080fd5b5060405162001a4b38038062001a4b83398101604081905262000034916200034d565b338484600362000045838262000456565b50600462000054828262000456565b5050506001600160a01b0381166200008757604051631e4fbdf760e01b8152600060048201526024015b60405180910390fd5b6200009281620000c5565b50620000b833620000a66012600a62000637565b620000b290856200064f565b62000117565b600655506200067f915050565b600580546001600160a01b038381166001600160a01b0319831681179093556040519116919082907f8be0079c531659141344cd1fd0a4f28419497f9722a3daafe3b4186f6b6457e090600090a35050565b6001600160a01b038216620001435760405163ec442f0560e01b8152600060048201526024016200007e565b620001516000838362000155565b5050565b6001600160a01b0383166200018457806002600082825462000178919062000669565b90915550620001f89050565b6001600160a01b03831660009081526020819052604090205481811015620001d95760405163391434e360e21b81526001600160a01b038516600482015260248101829052604481018390526064016200007e565b6001600160a01b03841660009081526020819052604090209082900390555b6001600160a01b038216620002165760028054829003905562000235565b6001600160a01b03821660009081526020819052604090208054820190555b816001600160a01b0316836001600160a01b03167fddf252ad1be2c89b69c2b068fc378daa952ba7f163c4a11628f55a4df523b3ef836040516200027b91815260200190565b60405180910390a3505050565b634e487b7160e01b600052604160045260246000fd5b600082601f830112620002b057600080fd5b81516001600160401b0380821115620002cd57620002cd62000288565b604051601f8301601f19908116603f01168101908282118183101715620002f857620002f862000288565b816040528381526020925086838588010111156200031557600080fd5b600091505b838210156200033957858201830151818301840152908201906200031a565b600093810190920192909252949350505050565b600080600080608085870312156200036457600080fd5b84516001600160401b03808211156200037c57600080fd5b6200038a888389016200029e565b95506020870151915080821115620003a157600080fd5b50620003b0878288016200029e565b604087015160609097015195989097509350505050565b600181811c90821680620003dc57607f821691505b602082108103620003fd57634e487b7160e01b600052602260045260246000fd5b50919050565b601f8211156200045157600081815260208120601f850160051c810160208610156200042c5750805b601f850160051c820191505b818110156200044d5782815560010162000438565b5050505b505050565b81516001600160401b0381111562000472576200047262000288565b6200048a81620004838454620003c7565b8462000403565b602080601f831160018114620004c25760008415620004a95750858301515b600019600386901b1c1916600185901b1785556200044d565b600085815260208120601f198616915b82811015620004f357888601518255948401946001909101908401620004d2565b5085821015620005125787850151600019600388901b60f8161c191681555b5050505050600190811b01905550565b634e487b7160e01b600052601160045260246000fd5b600181815b80851115620005795781600019048211156200055d576200055d62000522565b808516156200056b57918102915b93841c93908002906200053d565b509250929050565b600082620005925750600162000631565b81620005a15750600062000631565b8160018114620005ba5760028114620005c557620005e5565b600191505062000631565b60ff841115620005d957620005d962000522565b50506001821b62000631565b5060208310610133831016604e8410600b84101617156200060a575081810a62000631565b62000616838362000538565b80600019048211156200062d576200062d62000522565b0290505b92915050565b60006200064860ff84168362000581565b9392505050565b808202811582820484141762000631576200063162000522565b8082018082111562000631576200063162000522565b6113bc806200068f6000396000f3fe608060405234801561001057600080fd5b50600436106101165760003560e01c8063715018a6116100a2578063ae7b6d1611610071578063ae7b6d1614610246578063bdc4b0d21461024f578063dd62ed3e14610262578063de9cd9941461029b578063f2fde38b146102a457600080fd5b8063715018a6146102085780638da5cb5b1461021057806395d89b411461022b578063a9059cbb1461023357600080fd5b80630d61b519116100e95780630d61b5191461019857806318160ddd146101ab57806323b872dd146101bd578063313ce567146101d057806370a08231146101df57600080fd5b80630121b93f1461011b578063013cf08b1461013057806306fdde0314610160578063095ea7b314610175575b600080fd5b61012e610129366004610e87565b6102b7565b005b61014361013e366004610e87565b61043f565b604051610157989796959493929190610ee6565b60405180910390f35b6101686105b7565b6040516101579190610f4c565b610188610183366004610f82565b610649565b6040519015158152602001610157565b61012e6101a6366004610e87565b610663565b6002545b604051908152602001610157565b6101886101cb366004610fac565b610816565b60405160128152602001610157565b6101af6101ed366004610fe8565b6001600160a01b031660009081526020819052604090205490565b61012e61083a565b6005546040516001600160a01b039091168152602001610157565b61016861084e565b610188610241366004610f82565b61085d565b6101af60065481565b61012e61025d3660046110a6565b610900565b6101af610270366004611136565b6001600160a01b03918216600090815260016020908152604080832093909416825291909152205490565b6101af60075481565b61012e6102b2366004610fe8565b610ace565b6000600882815481106102cc576102cc611169565b90600052602060002090600902019050806003015442101561032e5760405162461bcd60e51b8152602060048201526016602482015275159bdd1a5b99c81a185cc81b9bdd081cdd185c9d195960521b60448201526064015b60405180910390fd5b80600401544211156103755760405162461bcd60e51b815260206004820152601060248201526f159bdd1a5b99c81a185cc8195b99195960821b6044820152606401610325565b33600090815260088201602052604090205460ff16156103d05760405162461bcd60e51b8152602060048201526016602482015275165bdd481a185d9948185b1c9958591e481d9bdd195960521b6044820152606401610325565b3360009081526008820160205260408120805460ff19166001179055600582018054916103fc83611195565b909155505060408051338152602081018490527fa36cc2bebb74db33e9f88110a07ef56e1b31b24b4c4f51b54b1664266e29f45b91015b60405180910390a15050565b6008818154811061044f57600080fd5b9060005260206000209060090201600091509050806000018054610472906111ae565b80601f016020809104026020016040519081016040528092919081815260200182805461049e906111ae565b80156104eb5780601f106104c0576101008083540402835291602001916104eb565b820191906000526020600020905b8154815290600101906020018083116104ce57829003601f168201915b505050505090806001018054610500906111ae565b80601f016020809104026020016040519081016040528092919081815260200182805461052c906111ae565b80156105795780601f1061054e57610100808354040283529160200191610579565b820191906000526020600020905b81548152906001019060200180831161055c57829003601f168201915b5050506002840154600385015460048601546005870154600688015460079098015496976001600160a01b0390941696929550909350919060ff1688565b6060600380546105c6906111ae565b80601f01602080910402602001604051908101604052809291908181526020018280546105f2906111ae565b801561063f5780601f106106145761010080835404028352916020019161063f565b820191906000526020600020905b81548152906001019060200180831161062257829003601f168201915b5050505050905090565b600033610657818585610b0c565b60019150505b92915050565b61066b610b1e565b60006008828154811061068057610680611169565b90600052602060002090600902019050806004015442116106da5760405162461bcd60e51b8152602060048201526014602482015273159bdd1a5b99c81a185cc81b9bdd08195b99195960621b6044820152606401610325565b600781015460ff161561072f5760405162461bcd60e51b815260206004820152601960248201527f50726f706f73616c20616c7265616479206578656375746564000000000000006044820152606401610325565b60008160060154116107835760405162461bcd60e51b815260206004820152601960248201527f4e6f206c6f636b656420746178657320617661696c61626c65000000000000006044820152606401610325565b806006015460075461079591906111e8565b600755600281015460068201546107b99130916001600160a01b0390911690610b4b565b60078101805460ff1916600117905560028101546006820154604080518581526001600160a01b0390931660208401528201527f3b7c90df35b419337cff0919fe91849006607bb66c4373623f06f9d48c1ebb9890606001610433565b600033610824858285610baa565b61082f858585610b4b565b506001949350505050565b610842610b1e565b61084c6000610c28565b565b6060600480546105c6906111ae565b60008060646006548461087091906111fb565b61087a9190611212565b9050600061088882856111e8565b9050816007600082825461089c9190611234565b909155506108ac90508582610c7a565b50604080513381526001600160a01b038716602082015280820184905290517febd91c543fbe2e2d6f6ec3cb7fc242dcfcbb8b045999f9d0875084923a5731f99181900360600190a1506001949350505050565b610908610b1e565b6001600160a01b0384166109505760405162461bcd60e51b815260206004820152600f60248201526e496e76616c6964206164647265737360881b6044820152606401610325565b8282116109a95760405162461bcd60e51b815260206004820152602160248201527f456e642064617465206d757374206265206166746572207374617274206461746044820152606560f81b6064820152608401610325565b60075481116109eb5760405162461bcd60e51b815260206004820152600e60248201526d125b9d985b1a5908185b5bdd5b9d60921b6044820152606401610325565b6008805460019081018083556000928352610a0691906111e8565b9050600060088281548110610a1d57610a1d611169565b60009182526020909120600990910201905080610a3a8982611295565b5060018101610a498882611295565b506002810180546001600160a01b0319166001600160a01b038816179055600381018590556004810184905560078101805460ff19169055600681018390556040517f9d1e2d67583a515402aa8aa172389f7bafc951616696ef7473125a9c615f0ae190610abc9084908b908a90611355565b60405180910390a15050505050505050565b610ad6610b1e565b6001600160a01b038116610b0057604051631e4fbdf760e01b815260006004820152602401610325565b610b0981610c28565b50565b610b198383836001610c88565b505050565b6005546001600160a01b0316331461084c5760405163118cdaa760e01b8152336004820152602401610325565b6001600160a01b038316610b7557604051634b637e8f60e11b815260006004820152602401610325565b6001600160a01b038216610b9f5760405163ec442f0560e01b815260006004820152602401610325565b610b19838383610d5d565b6001600160a01b038381166000908152600160209081526040808320938616835292905220546000198114610c225781811015610c1357604051637dc7a0d960e11b81526001600160a01b03841660048201526024810182905260448101839052606401610325565b610c2284848484036000610c88565b50505050565b600580546001600160a01b038381166001600160a01b0319831681179093556040519116919082907f8be0079c531659141344cd1fd0a4f28419497f9722a3daafe3b4186f6b6457e090600090a35050565b600033610657818585610b4b565b6001600160a01b038416610cb25760405163e602df0560e01b815260006004820152602401610325565b6001600160a01b038316610cdc57604051634a1406b160e11b815260006004820152602401610325565b6001600160a01b0380851660009081526001602090815260408083209387168352929052208290558015610c2257826001600160a01b0316846001600160a01b03167f8c5be1e5ebec7d5bd14f71427d1e84f3dd0314c0f7b2291e5b200ac8c7c3b92584604051610d4f91815260200190565b60405180910390a350505050565b6001600160a01b038316610d88578060026000828254610d7d9190611234565b90915550610dfa9050565b6001600160a01b03831660009081526020819052604090205481811015610ddb5760405163391434e360e21b81526001600160a01b03851660048201526024810182905260448101839052606401610325565b6001600160a01b03841660009081526020819052604090209082900390555b6001600160a01b038216610e1657600280548290039055610e35565b6001600160a01b03821660009081526020819052604090208054820190555b816001600160a01b0316836001600160a01b03167fddf252ad1be2c89b69c2b068fc378daa952ba7f163c4a11628f55a4df523b3ef83604051610e7a91815260200190565b60405180910390a3505050565b600060208284031215610e9957600080fd5b5035919050565b6000815180845260005b81811015610ec657602081850181015186830182015201610eaa565b506000602082860101526020601f19601f83011685010191505092915050565b6000610100808352610efa8184018c610ea0565b90508281036020840152610f0e818b610ea0565b6001600160a01b0399909916604084015250506060810195909552608085019390935260a084019190915260c0830152151560e09091015292915050565b602081526000610f5f6020830184610ea0565b9392505050565b80356001600160a01b0381168114610f7d57600080fd5b919050565b60008060408385031215610f9557600080fd5b610f9e83610f66565b946020939093013593505050565b600080600060608486031215610fc157600080fd5b610fca84610f66565b9250610fd860208501610f66565b9150604084013590509250925092565b600060208284031215610ffa57600080fd5b610f5f82610f66565b634e487b7160e01b600052604160045260246000fd5b600082601f83011261102a57600080fd5b813567ffffffffffffffff8082111561104557611045611003565b604051601f8301601f19908116603f0116810190828211818310171561106d5761106d611003565b8160405283815286602085880101111561108657600080fd5b836020870160208301376000602085830101528094505050505092915050565b60008060008060008060c087890312156110bf57600080fd5b863567ffffffffffffffff808211156110d757600080fd5b6110e38a838b01611019565b975060208901359150808211156110f957600080fd5b5061110689828a01611019565b95505061111560408801610f66565b9350606087013592506080870135915060a087013590509295509295509295565b6000806040838503121561114957600080fd5b61115283610f66565b915061116060208401610f66565b90509250929050565b634e487b7160e01b600052603260045260246000fd5b634e487b7160e01b600052601160045260246000fd5b6000600182016111a7576111a761117f565b5060010190565b600181811c908216806111c257607f821691505b6020821081036111e257634e487b7160e01b600052602260045260246000fd5b50919050565b8181038181111561065d5761065d61117f565b808202811582820484141761065d5761065d61117f565b60008261122f57634e487b7160e01b600052601260045260246000fd5b500490565b8082018082111561065d5761065d61117f565b601f821115610b1957600081815260208120601f850160051c8101602086101561126e5750805b601f850160051c820191505b8181101561128d5782815560010161127a565b505050505050565b815167ffffffffffffffff8111156112af576112af611003565b6112c3816112bd84546111ae565b84611247565b602080601f8311600181146112f857600084156112e05750858301515b600019600386901b1c1916600185901b17855561128d565b600085815260208120601f198616915b8281101561132757888601518255948401946001909101908401611308565b50858210156113455787850151600019600388901b60f8161c191681555b5050505050600190811b01905550565b83815260606020820152600061136e6060830185610ea0565b905060018060a01b038316604083015294935050505056fea2646970667358221220c16ac016e132f430306460cfbca00d3dbccd830f9891685abbf266c988c4df4a64736f6c63430008140033",
  "linkReferences": {},
  "deployedLinkReferences": {}
}